{
  "address": "0xC52dE3fc89765858e59CADb33781343ca47aB55a",
  "abi": [
    {
      "inputs": [
        {
          "internalType": "address payable",
          "name": "diceGameAddress",
          "type": "address"
        }
      ],
      "stateMutability": "nonpayable",
      "type": "constructor"
    },
    {
      "inputs": [
        {
          "internalType": "address",
          "name": "owner",
          "type": "address"
        }
      ],
      "name": "OwnableInvalidOwner",
      "type": "error"
    },
    {
      "inputs": [
        {
          "internalType": "address",
          "name": "account",
          "type": "address"
        }
      ],
      "name": "OwnableUnauthorizedAccount",
      "type": "error"
    },
    {
      "anonymous": false,
      "inputs": [
        {
          "indexed": true,
          "internalType": "address",
          "name": "previousOwner",
          "type": "address"
        },
        {
          "indexed": true,
          "internalType": "address",
          "name": "newOwner",
          "type": "address"
        }
      ],
      "name": "OwnershipTransferred",
      "type": "event"
    },
    {
      "inputs": [],
      "name": "diceGame",
      "outputs": [
        {
          "internalType": "contract DiceGame",
          "name": "",
          "type": "address"
        }
      ],
      "stateMutability": "view",
      "type": "function"
    },
    {
      "inputs": [],
      "name": "owner",
      "outputs": [
        {
          "internalType": "address",
          "name": "",
          "type": "address"
        }
      ],
      "stateMutability": "view",
      "type": "function"
    },
    {
      "inputs": [],
      "name": "renounceOwnership",
      "outputs": [],
      "stateMutability": "nonpayable",
      "type": "function"
    },
    {
      "inputs": [],
      "name": "riggedRoll",
      "outputs": [],
      "stateMutability": "nonpayable",
      "type": "function"
    },
    {
      "inputs": [
        {
          "internalType": "address",
          "name": "newOwner",
          "type": "address"
        }
      ],
      "name": "transferOwnership",
      "outputs": [],
      "stateMutability": "nonpayable",
      "type": "function"
    },
    {
      "inputs": [
        {
          "internalType": "address payable",
          "name": "_to",
          "type": "address"
        },
        {
          "internalType": "uint256",
          "name": "_amount",
          "type": "uint256"
        }
      ],
      "name": "withdraw",
      "outputs": [],
      "stateMutability": "nonpayable",
      "type": "function"
    },
    {
      "stateMutability": "payable",
      "type": "receive"
    }
  ],
  "transactionHash": "0xbec46ced8d0a6fc251fef93511a18493d90149b8a97dca8d5becaec693d4403b",
  "args": [
    "0xa935aEA9358AbeA2a6E37E2d5b20E85913AE4Fb0"
  ],
  "numDeployments": 1,
  "solcInputHash": "c2fd53ad330190769924734ed72b9aa2",
  "bytecode": "0x608060405234801561001057600080fd5b5060405161073338038061073383398101604081905261002f916100d4565b338061005557604051631e4fbdf760e01b81526000600482015260240160405180910390fd5b61005e81610084565b50600180546001600160a01b0319166001600160a01b0392909216919091179055610104565b600080546001600160a01b038381166001600160a01b0319831681178455604051919092169283917f8be0079c531659141344cd1fd0a4f28419497f9722a3daafe3b4186f6b6457e09190a35050565b6000602082840312156100e657600080fd5b81516001600160a01b03811681146100fd57600080fd5b9392505050565b610620806101136000396000f3fe6080604052600436106100595760003560e01c80636b5e97f814610065578063715018a61461007c5780638da5cb5b146100915780638e288fd1146100c7578063f2fde38b146100e7578063f3fef3a31461010757600080fd5b3661006057005b600080fd5b34801561007157600080fd5b5061007a610127565b005b34801561008857600080fd5b5061007a61030d565b34801561009d57600080fd5b506000546001600160a01b03165b6040516001600160a01b03909116815260200160405180910390f35b3480156100d357600080fd5b506001546100ab906001600160a01b031681565b3480156100f357600080fd5b5061007a6101023660046104e3565b610321565b34801561011357600080fd5b5061007a610122366004610507565b61035f565b66071afd498d00004710156101745760405162461bcd60e51b815260206004820152600e60248201526d09cdee840cadcdeeaced0408aa8960931b60448201526064015b60405180910390fd5b6000610181600143610533565b4090506000600160009054906101000a90046001600160a01b03166001600160a01b031663affed0e06040518163ffffffff1660e01b8152600401602060405180830381865afa1580156101d9573d6000803e3d6000fd5b505050506040513d601f19601f820116820180604052508101906101fd919061055a565b600154604080516020810186905260609290921b6bffffffffffffffffffffffff1916908201526054810182905290915060009060740160408051601f1981840301815291905280516020909101209050600061025b601083610573565b905061028e6040518060400160405280600f81526020016e283932b234b1ba32b2103937b6361d60891b815250826103e3565b6005811161030757600160009054906101000a90046001600160a01b03166001600160a01b0316637d789dee66071afd498d00006040518263ffffffff1660e01b81526004016000604051808303818588803b1580156102ed57600080fd5b505af1158015610301573d6000803e3d6000fd5b50505050505b50505050565b61031561042c565b61031f6000610459565b565b61032961042c565b6001600160a01b03811661035357604051631e4fbdf760e01b81526000600482015260240161016b565b61035c81610459565b50565b61036761042c565b804710156103a85760405162461bcd60e51b815260206004820152600e60248201526d09cdee840cadcdeeaced0408aa8960931b604482015260640161016b565b6040516001600160a01b0383169082156108fc029083906000818181858888f193505050501580156103de573d6000803e3d6000fd5b505050565b61042882826040516024016103f9929190610595565b60408051601f198184030181529190526020810180516001600160e01b0316632d839cb360e21b1790526104a9565b5050565b6000546001600160a01b0316331461031f5760405163118cdaa760e01b815233600482015260240161016b565b600080546001600160a01b038381166001600160a01b0319831681178455604051919092169283917f8be0079c531659141344cd1fd0a4f28419497f9722a3daafe3b4186f6b6457e09190a35050565b61035c8160006a636f6e736f6c652e6c6f679050600080835160208501845afa505050565b6001600160a01b038116811461035c57600080fd5b6000602082840312156104f557600080fd5b8135610500816104ce565b9392505050565b6000806040838503121561051a57600080fd5b8235610525816104ce565b946020939093013593505050565b8181038181111561055457634e487b7160e01b600052601160045260246000fd5b92915050565b60006020828403121561056c57600080fd5b5051919050565b60008261059057634e487b7160e01b600052601260045260246000fd5b500690565b604081526000835180604084015260005b818110156105c357602081870181015160608684010152016105a6565b506000606082850101526060601f19601f830116840101915050826020830152939250505056fea2646970667358221220cf542bf3450b84dd217066961557146ef8e2918db3c0fdbd4c59270144ea841f64736f6c63430008140033",
  "devdoc": {
    "errors": {
      "OwnableInvalidOwner(address)": [
        {
          "details": "The owner is not a valid owner account. (eg. `address(0)`)"
        }
      ],
      "OwnableUnauthorizedAccount(address)": [
        {
          "details": "The caller account is not authorized to perform an operation."
        }
      ]
    },
    "kind": "dev",
    "methods": {
      "owner()": {
        "details": "Returns the address of the current owner."
      },
      "renounceOwnership()": {
        "details": "Leaves the contract without owner. It will not be possible to call `onlyOwner` functions. Can only be called by the current owner. NOTE: Renouncing ownership will leave the contract without an owner, thereby disabling any functionality that is only available to the owner."
      },
      "transferOwnership(address)": {
        "details": "Transfers ownership of the contract to a new account (`newOwner`). Can only be called by the current owner."
      }
    },
    "version": 1
  },
  "userdoc": {
    "kind": "user",
    "methods": {},
    "version": 1
  },
  "storageLayout": {
    "storage": [
      {
        "astId": 8,
        "contract": "contracts/RiggedRoll.sol:RiggedRoll",
        "label": "_owner",
        "offset": 0,
        "slot": "0",
        "type": "t_address"
      },
      {
        "astId": 351,
        "contract": "contracts/RiggedRoll.sol:RiggedRoll",
        "label": "diceGame",
        "offset": 0,
        "slot": "1",
        "type": "t_contract(DiceGame)341"
      }
    ],
    "types": {
      "t_address": {
        "encoding": "inplace",
        "label": "address",
        "numberOfBytes": "20"
      },
      "t_contract(DiceGame)341": {
        "encoding": "inplace",
        "label": "contract DiceGame",
        "numberOfBytes": "20"
      }
    }
  }
}